:020000040800F2
:100000000020001095FC020871F30108E95E000869
:100010006FF301086DF301086BF3010800000000A5
:1000200000000000000000000000000069F301086B
:1000300067F301080000000065F301089D780008DF
:10004000FDFC0208FDFC0208FDFC0208FDFC0208A4
:10005000FDFC0208FDFC020869860008958700087F
:10006000598700081D870008E186000881330008D1
:100070007133000861330008513300084133000830
:100080002D33000819330008FDFC0208FDFC0208AE
:100090008DF40108FDFC0208FDFC0208A58600089D
:1000A000FDFC0208FDFC0208FDFC0208FDFC020844
:1000B000FDFC0208FDFC0208FDFC0208FDFC020834
:1000C000FDFC0208FDFC0208FDFC0208FDFC020824
:1000D000FDFC0208FDFC0208FDFC0208D1780008C6
:1000E0002D860008FDFC020855F30108FDFC0208FE
:1000F000FDFC0208FDFC0208FDFC0208FDFC0208F4
:10010000000000000000000000000000FDFC0208EC
:10011000FDFC0208FDFC020801570108E556010834
:1001200005330008F1320008DD320008C93200084A
:10013000B5320008FDFC02080000000000000000CD
:10014000FDFC0208FDFC0208FDFC020800000000A6
:10015000000000000000000000000000000000009F
:100160000000000000000000FDFC0208FDFC020889
:10017000FDFC02080000000000000000000000007C
:0801800000000000FDFC020874
:10018800002870B51EDB0928044620DD012303EB97
:1001980083035B00B0FBF3F2092AF8D87BB10E4E5B
:1001A800B4FBF3F00928CCBF57223022A6FB03E5A5
:1001B800024403FB1044EB0801F8012BF0D10023A3
:1001C8000B7070BD2D230B7040420131DBE73030DE
:1001D80001F8010BF3E700BFCDCCCCCC884230B49A
:1001E8004FF001042ED301FB04F4B0FBF4F58D426B
:1001F800F9D284B1AAB901E0B0FBF4F5092DCCBF5E
:10020800572230222A4404FB150003F8012BB4FBC3
:10021800F1F4002CF0D100221A7030BC7047B0FB0A
:10022800F4F5092DCCBF372230222A4404FB1500EF
:1002380003F8012BB4FBF1F4002CF0D100221A7062
:1002480030BC70470546002AEBD1D7E72DE9F047C7
:1002580014461D46064600234FF47A722046294666
:100268002FF040FBDFF840814B4A4C4F88FB0031B0
:100278000144C31782FB002EC3EB611188FB0128E0
:1002880087FB00278644464AC3EBEE2EC1EB011CD0
:1002980082FB0E29A0EB8C0C0744424A86F806C064
:1002A800C3EB27474FEAEE7C08EB010ACCEBA90C1D
:1002B80082FB07824FEAE1780CEB4C0CC8EB6A181A
:1002C800AEEBCC0EC8EB0818DFF8E0C086F804E007
:1002D800A1EB880171718CFB0010F917C1EBE212D8
:1002E80040F2B55101FB1272C3EBE050B2F5896FD1
:1002F8004FEA80073CDA40F2DA239A4242DCB2F550
:10030800B77FB4BF4FF0000C4FF0010C4FEA4C0917
:10031800DFF89C8009EB0C0308EBC3031FFA8CFE83
:10032800D88A09EB0C0108EBC10116310B2301E057
:1003380031F8020D824218DA013BF9D1CC4401238D
:1003480038F83C00B37007F2B2770132121ABE4493
:10035800F270A6F800E0204629464FF47A7200238E
:100368002FF0C0FA3281BDE8F0870133DBB2E9E74C
:100378004FF0030EF44640F29650DFF834804FF009
:100388000609CEE74FF0020EDFF82480F44640F26B
:1003980029404FF00409C4E7C5B3A29107452EC20E
:1003A800ABAAAA2A73B06D1689888888792D03119B
:1003B8007812030803685A1C02601970704700BF5E
:1003C8002DE9F047089C2578002B804689460CBF0C
:1003D8004FF0200A4FF0300A661C35B3002A29DD99
:1003E800334601E0024698B113F8011B501E00295C
:1003F800F8D1971E60B13D46013D51464046C84779
:100408006B1C002BF8DC257827EAE770013055B122
:10041800041B29464046C847301916F8015B002DD1
:10042800F7D1BDE8F087BDE8F087002A04DC28464C
:10043800BDE8F0870020EBE7571EDCE783684268D9
:10044800D0ED037A00EB83010133934281ED040A76
:10045800836004BF0023836000EB830393ED047A79
:10046800036870EE277A9A42C0ED037A77EEC77A6E
:10047800C0ED037A0CDA013307EE103AF8EEC76ADA
:10048800B7EE007A87EEA60A036030EE070A7047D7
:1004980007EE102AB8EEC77A87EE870A704700BFC2
:1004A80090ED057A90ED004AD0ED066AD0ED014A4C
:1004B800D0ED047A90ED035AD0ED025AA4EE007AFA
:1004C800B0EE406AB0EE470AB0EE667AA6EE247A3D
:1004D80067EEC07AA0EE457AE6EE257A80ED057AD9
:1004E800C0ED067A704700BFD0ED057A90ED013A6D
:1004F800D0ED003AD0ED064A90ED024A90ED077A29
:1005080090ED035A90ED086AD0ED045AC0ED067AD2
:10051800F0EE406A27EE830AC0ED056AA3EEA60A4C
:1005280080ED087AA4EE240AA5EE470AA5EEC60ACD
:1005380080ED070A704700BFD0ED007A90ED017A90
:1005480030EE670AE7EE007AB0EE670AC0ED007A8F
:10055800704700BF704700BF0A44914214D030B4BE
:100568000139551E41F2210211F8014F082380EA92
:10057800042004044CBF82EA40004000013B80B2E2
:10058800F7D18D42F0D130BC704700BFE0B1D9B18E
:10059800F0B50E4B1B7800240B2B0CBF4FF00E0E42
:1005A8004FF0080E23460227012617FB036511F8B2
:1005B80013204D5D0133DBB242EA0522734520F872
:1005C80014201C46F1D3F0BD704700BF0000002086
:1005D8004FF4805383827047012380F84530704779
:1005E80070B40468037B2268022101FA03F31A42FB
:1005F80013D042690A495C2000FB02124FF6FE76CE
:1006080050685289C5680068296831402960C16806
:10061800D24392B20A40C260636070BC704700BFA8
:10062800B85D002030B40A4B1D7875B1094B002025
:1006380003EBC5051A6899885062D4682143D160D4
:10064800083323F8040CAB42F4D130BC704700BF28
:10065800986000209C60002010B40268047B116838
:100668000223A340194209D00649406800240C70AF
:1006780001684FF6FE742140016053605DF8044B39
:10068800704700BF73350020014B186807F0CAB9DE
:1006980094240020F8B55D2022F0B2FF1349144BD2
:1006A8000D884A88DFF850E04C196E1C27792071B4
:1006B800D21B104400B283FB0034C3179EF80050CD
:1006C8004880C3EBE403323306F00F029BB2032DDC
:1006D8000A808B8209D1A3EB8303DB0003F6E803CE
:1006E8001BB2044A83F30A031380F8BDB02200202A
:1006F800ABAAAA2A6C620020E22B002008B5064BA0
:10070800186807F085FF28B106F080FF034B012227
:1007180098611A7708BD00BF40500020B022002021
:10072800F0B5836983B0054613B11A689B881385B1
:100738006869264F8389C3244FF47A734FF0060EF5
:100748006E464FF6FF71013703E0013B9BB28B42C7
:100758001DD002899207F8D504734FF47A7302E02A
:10076800A3B28B4213D00289D20703F1FF34F7D525
:10077800027BD2B20EB132700136BEF1000F08D042
:100788000EF1FF3EFF24002FE3D03C78DBE708F0B2
:100798009FF8AB6913B11A689B8893619DF80500AF
:1007A8009DF801609DF802109DF803409DF8042013
:1007B8009DF8063041EA062143EA002342EA042272
:1007C800012029876A87AB8703B0F0BDD8120308D8
:1007D800037A022B01D000207047F0B5036983B07B
:1007E80013B11A689B881385044640F2E933C06840
:1007F80001E0002B59D00289013B12F0020F9BB295
:10080800F7D0BB23037340F2E93301E0002B4CD04F
:100818000289013B12F0010F9BB2F7D0037BE0681D
:100828004FF0060E83896E464FF47A734FF6FF71C8
:10083800FF2703E0013B9BB28B4233D00289950727
:10084800F8D507734FF47A7302E0ABB28B4229D024
:100858000289D20703F1FF35F7D5027BD2B20EB178
:1008680032700136BEF1010EE8D1236913B11A685E
:100878009B8893619DF804009DF800609DF8011025
:100888009DF802509DF803209DF8053041EA0621A5
:1008980043EA002342EA05220120E182228363839E
:1008A80003B0F0BD08F014F8DFE708F011F8B6E778
:1008B8002DE9F04F90F8553085B00646002B7FD1D2
:1008C8008E4B5B7F002B00F0D4807069038823F087
:1008D80040031B041B0C038003889BB223F03803DE
:1008E80043F03803038003889BB243F0400303803E
:1008F800B36996F84E4013B11A689B88138540F285
:10090800E93302E0002B00F079850289013B12F0FF
:10091800020F9BB2F6D01A23037340F2E93302E0C8
:10092800002B00F06B850289013B12F0010F9BB28E
:10093800F6D0037B706940F2E93302E0002B00F047
:1009480061850289013B12F0020F9BB2F6D0047355
:1009580040F2E93302E0002B00F054850289013BA4
:1009680012F0010F9BB2F6D0037BB36913B11A687A
:100978009B88936106F04AFE044606F047FE8442CF
:10098800FBD07069038823F040031B041B0C038011
:10099800038823F038031B041B0C038003889BB2D5
:1009A80043F040030380337C022B00F04A84B6F9FD
:1009B8003A305BB2013300F0138405B0BDE8F08F24
:1009C8001D09013D052D03F00F0300F222854C4A55
:1009D80032F8150040FA03F2D20740F11A850124D3
:1009E80004FA03F3013B18402EF0CCFF454B464A6E
:1009F8005B5D184412EBC00500F00B850023202135
:100A0800EB71A97152F83000404A00F138439B0A53
:100A1800D25C02F01F035209022A04FA03F300F021
:100A28004E85032A00F04585A24200F03C85AB883C
:100A3800029302A9002303931AF06CFF3146344B4A
:100A480041F80C3F28462DF041F9AB88B3FA83F3FF
:100A5800C3F11F035F1C3FF433AF012202FA03F313
:100A68002C490A6813430B60244B5B7F002B7FF4EF
:100A78002CAF7069038823F040031B041B0C038010
:100A880003889BB223F0380343F0380303800388BC
:100A98009BB243F040030380B36913B11A689B8883
:100AA800138540F2E93302E0002B00F0E08402896C
:100AB800013B12F0020F9BB2F6D06B23037340F296
:100AC800E93302E0002B00F0D2840289013B12F0E6
:100AD800010F9BB2F6D0037B706940F2E93302E064
:100AE800002B00F0C8840289013B12F0020F9BB270
:100AF800F6D08023037340F2E93310E0B0220020DF
:100B0800EC350308F8350308104F0020B43C0308FF
:100B1800E105000800040140002B00F0AC840289C4
:100B2800013B12F0010F9BB2F6D0037BB36913B1FE
:100B38001A689B8893619623AB4CAC4DDFF8B4A23E
:100B4800AB48DFF8B4C201964FF010084FF47A773B
:100B58009946DAF80430C3F30803002B40F01384F5
:100B6800EFF31183002B40F00E842368816800BFE7
:100B780022689342F9D12A6807FB02FEAEEB010E08
:100B8800BEFBF2FE07FB03EE0126DAF80430C3F3DE
:100B98000803002B40F0BB83EFF31183002B40F0D8
:100BA800B6832368816800BF22689342F9D1D5F8DB
:100BB80000B007FB0BF2521AB2FBFBF207FB032350
:100BC800A3EB0E03B3F57A7FDFD3B9F10109C0D1E6
:100BD800019EB36913B11A689B881385706940F246
:100BE800E93302E0002B00F04A840289013B12F04D
:100BF800020F9BB2F6D06823037340F2E93302E098
:100C0800002B00F03C840289013B12F0010F9BB2DB
:100C1800F6D0037B706940F2E93302E0002B00F064
:100C280032840289013B12F0020F9BB2F6D00323F3
:100C3800037340F2E93302E0002B00F024840289B8
:100C4800013B12F0010F9BB2F6D0037BB36913B1DD
:100C58001A689B8893619623DFF898A16448DFF8A7
:100C680098C101964FF010084FF47A779946DAF850
:100C78000430C3F30803002B40F0A383EFF3118380
:100C8800002B40F09E832368816800BF226893424E
:100C9800F9D12A6807FB02FEAEEB010EBEFBF2FE9D
:100CA80007FB03EE0126DAF80430C3F30803002B30
:100CB80040F04B83EFF31183002B40F04683236809
:100CC800816800BF22689342F9D1D5F800B007FBCC
:100CD8000BF2521AB2FBFBF207FB0323A3EB0E0342
:100CE800B3F57A7FDFD3B9F10109C0D1019EB369A9
:100CF80013B11A689B881385706940F2E93302E0E2
:100D0800002B00F0C4830289013B12F0020F9BB252
:100D1800F6D06B23037340F2E93302E0002B00F0B6
:100D2800B6830289013B12F0010F9BB2F6D0037B18
:100D3800706940F2E93302E0002B00F0AB830289CE
:100D4800013B12F0020F9BB2F6D00323037340F26B
:100D5800E93302E0002B00F09D830289013B12F089
:100D6800010F9BB2F6D0037BB36913B11A689B8855
:100D7800936106F04BFC044606F048FC001B0E2865
:100D8800FAD9B36913B11A689B881385706940F260
:100D9800E93302E0002B00F080830289013B12F066
:100DA800020F9BB2F6D06A23037340F2E93302E0E4
:100DB800002B00F072830289013B12F0010F9BB2F5
:100DC800F6D0037B706940F2E93302E0002B00F0B3
:100DD80067830289013B12F0020F9BB2F6D0102301
:100DE800037340F2E9330CE0406C0020446C0020AF
:100DF80010E000E000ED00E03C6C0020002B00F06B
:100E08004F830289013B12F0010F9BB2F6D0037B9E
:100E1800B36913B11A689B88936106F0F7FB04461F
:100E280006F0F4FB001B0E28FAD9B36913B11A684F
:100E38009B881385706940F2E93302E0002B00F0CB
:100E4800FE820289013B12F0020F9BB2F6D06C239E
:100E5800037340F2E93302E0002B00F0F0820289CC
:100E6800013B12F0010F9BB2F6D0037B706940F290
:100E7800E93302E0002B00F0E5820289013B12F021
:100E8800020F9BB2F6D00023037340F2E93302E06D
:100E9800002B00F0D7820289013B12F0010F9BB2B0
:100EA800F6D0037BB36913B11A689B88936106F087
:100EB800ADFB044606F0AAFB001B0E28FAD9B3695D
:100EC80096F8504013B11A689B881385706940F2F0
:100ED800E93302E0002B00F0B8820289013B12F0EE
:100EE800020F9BB2F6D01923037340F2E93302E0F4
:100EF800002B00F0AA820289013B12F0010F9BB27D
:100F0800F6D0037B706940F2E93302E0002B00F071
:100F18009F820289013B12F0020F9BB2F6D0047344
:100F280040F2E93302E0002B00F092820289013B93
:100F380012F0010F9BB2F6D0037BB36913B11A68A4
:100F48009B88936106F062FB044606F05FFB001B7A
:100F58000E28FAD9B36913B11A689B88138570698A
:100F680040F2E93302E0002B00F075820289013B70
:100F780012F0020F9BB2F6D01B23037340F2E93341
:100F880002E0002B00F067820289013B12F0010F9A
:100F98009BB2F6D0037B706940F2E93302E0002B84
:100FA80000F05C820289013B12F0020F9BB2F6D07E
:100FB8001823037340F2E93302E0002B00F04E825D
:100FC8000289013B12F0010F9BB2F6D0037BB36993
:100FD80013B11A689B88936106F018FB044606F063
:100FE80015FB001B0E28FAD9B36913B11A689B8840
:100FF8001385706940F2E93302E0002B00F031827A
:101008000289013B12F0020F9BB2F6D01C23037336
:1010180040F2E93302E0002B00F023820289013B11
:1010280012F0010F9BB2F6D0037B706940F2E933EE
:1010380002E0002B00F018820289013B12F0020F37
:101048009BB2F6D01023037340F2E93302E0002B81
:1010580000F00A820289013B12F0010F9BB2F6D020
:10106800037BB36913B11A689B88936106F0CEFAC3
:10107800044606F0CBFA001B0E28FAD9B36913B15F
:101088001A689B881385706940F2E93302E0002BE7
:1010980000F0C9810289013B12F0020F9BB2F6D021
:1010A8003723037340F2E93302E0002B00F0BB81E1
:1010B8000289013B12F0010F9BB2F6D0037B7069E5
:1010C80040F2E93302E0002B00F0B0810289013BD5
:1010D80012F0020F9BB2F6D01023037340F2E933EB
:1010E80002E0002B00F0A2810289013B12F0010FFF
:1010F8009BB2F6D0037BB36913B11A689B889361DE
:1011080006F084FA044606F081FA001B0E28FAD984
:10111800B36913B11A689B881385706940F2E93383
:1011280002E0002B00F085810289013B12F0020FDA
:101138009BB2F6D03823037340F2E93302E0002B68
:1011480000F077810289013B12F0010F9BB2F6D0C3
:10115800037B706940F2E93302E0002B00F06C81F8
:101168000289013B12F0020F9BB2F6D001230373F0
:1011780040F2E93302E0002B00F05E810289013B76
:1011880012F0010F9BB2F6D0037BB36913B11A6852
:101198009B88936106F03AFA044606F037FA001B7A
:1011A8000E28FAD97269138823F040031B041B0C1C
:1011B8001380138823F038031B041B0C1380138837
:1011C8009BB243F04003138006F020FA044606F071
:1011D8001DFA8442FBD0BD4A01235377FFF775BB44
:1011E80096F9383001337FF4E8AB0A2632202CF028
:1011F8004DFF4FF4FA7506F009FA044606F006FAB0
:10120800001BB0F57A7FF9D3013DF4D107202CF00B
:10121800BDFD4FF47A7506F0F9F9044606F0F6F9C3
:10122800001BB0F57A7FF9D3013DF4D1013EDDD141
:10123800A749A84BA848A94A0860DA6005B0BDE8E4
:10124800F08FB36913B11A689B88138540F2E933AC
:1012580002E0002B00F0DA800289013B12F0020F55
:101268009BB2F6D0C323037340F2E93302E0002BAC
:1012780000F0CC800289013B12F0010F9BB2F6D03E
:10128800037B70694FF0060E838902AD4FF47A73C1
:101298004FF6FF71FF2703E0013B9BB28B4233D02F
:1012A80002899407F8D507734FF47A7302E0A3B262
:1012B8008B4229D00289D20703F1FF34F7D5027B8C
:1012C800D2B20DB12A700135BEF1010EE8D1B36971
:1012D80013B11A689B8893619DF80A509DF80B30EA
:1012E8009DF808409DF809109DF80C009DF80D2008
:1012F80043EA05231BB241EA042142EA002273872C
:101308003187B287FFF755BB07F0E2FADFE7EFF363
:10131800118188F31288D0F808B00368DB0344BF52
:10132800CCF80060D0F808B02368DCF80020C9B217
:1013380081F3118829681A4407FB01F3A3EB0B0317
:10134800B3FBF1F307FB02333AE4EFF3118188F3BF
:101358001288D0F808B00368DB0344BFCCF80060FB
:10136800D0F808B02368DCF80020C9B281F31188EE
:1013780029681A4407FB01F3A3EB0B03B3FBF1F352
:1013880007FB0233AAE4EFF3118288F3128881681D
:101398000368DE0303D50123CCF800308168236895
:1013A800DCF80060D2B282F311882A6806EB030EDB
:1013B80007FB02F35B1AB3FBF2F307FB0E3EFFF7E2
:1013C800E3BBEFF3118288F3128881680368DE03B8
:1013D80003D50123CCF8003081682368DCF800606D
:1013E800D2B282F311882A6806EB030E07FB02F3D8
:1013F8005B1AB3FBF2F307FB0E3E53E407F068FAFF
:10140800FFF798BA07F064FAFFF7AFBA07F060FA87
:1014180037E73146324B41F80C3F00202CF056FCA0
:101428000123FFF71DBB07F053FA48E607F050FA0F
:1014380061E607F04DFA8CE607F04AFAA5E607F0F0
:1014480047FA13E507F044FA2CE507F041FA59E5A5
:1014580007F03EFA71E507F03BFA9CE507F038FA29
:10146800B5E507F035FAE0E507F032FAF9E507F0F7
:101478002FFAFFF731BB07F02BFAFFF757BB07F03E
:1014880027FAFFF7C7BB07F023FAFFF7DFBB07F020
:101498001FFA4DE407F01CFA66E407F019FA91E424
:1014A80007F016FAB4E40F4A51690B435361FFF78A
:1014B800BEBA0C4AD1690B43D361FFF7B8BA094ADF
:1014C80091690B439361FFF7B2BA00BFB0220020C5
:1014D800FC9F002000ED00E0EFBEADDE0400FA0541
:1014E800E10500080010024010B490E80600047BF3
:1014F80040690223A3404B6013685DF8044B4FF624
:10150800FE710B40136006F01DBA034A136823EA04
:1015180000001060704700BF34320020F8B5174D46
:101528002B78A52B28D16B78BE2B25D102222946F2
:101538004FF6FF70FFF710F8114FAC1C22884AB124
:10154800A618BE4218D2052A16D92146FFF704F874
:101558003446F3E721460222FEF7FEFF0222A118D5
:10156800FEF7FAFF0634074B641B1C8041F60F5345
:10157800C31A58425841F8BD0020F8BD00F00308CE
:1015880000000408EC2900202DE9F04FDFF86491F1
:101598004F4F8BB00326A7EB09071822002104A898
:1015A8002FF0F7FD4B4BCDF8109005971A691206EE
:1015B80004D5494A5A6002F188325A6001228DF8EE
:1015C80024203422DA60454B454C1B88ADF80030A6
:1015D8000222694604A807F047FA022269464FF634
:1015E800FF70FEF7B9FFDFF810A180464FF0000B3F
:1015F800544536D30AAC002524F8245D022221463E
:1016080004A807F031FA022221464046FEF7A4FF5B
:1016180040BAC043ADF80800022202A904A807F0A6
:1016280023FA079860B106ABC0F1040229461844B2
:101638002FF0AFFD069904A807F0BCF907950890AC
:101648009DF82430089A23B122490B6943F080039E
:101658000B61013E2DD0002A9FD1FFF75FFF50B3E9
:1016680032E065888DF80DB0C5F30B05AB1DADF8FC
:1016780008302388C3F30B02ADF80A201B0B06229F
:1016880002A904A88DF80C3007F0EEF9062202A989
:101698004046FEF761FF616880462A4604A807F0C5
:1016A800E3F9616840462A46FEF756FF143480463F
:1016B8009EE7002AD1D0052021F05AFD094B0A4A9D
:1016C8001A600A4B0A4ADA600BB0BDE8F08F00BF17
:1016D800000004080020024023016745DF120308C8
:1016E80020750308FC9F0020EFBEADDE00ED00E092
:1016F8000400FA0500F00308807903080378202B1A
:10170800024600F10100F9D0092BF7D02D2B2CD07F
:101718002B2B03BF5378B7EE000A0246B7EE000A38
:10172800A3F13001C8B209289FED467A10D8F2EE2D
:10173800046A07EE901AF8EEE77A12F8013FE7EE2E
:10174800267AA3F13001C8B20928B0EE677AF0D939
:101758002E2B4CD003F0DF03452B0BD0F7EE007A8D
:1017680067EE276A20EE260A70475378BFEE000A14
:101778000246D5E710B451782D2959D02B290ABF34
:101788009178501C901C0024A1F13003092B53D8E8
:10179800002303EB830301EB430310F8011FA1F1BE
:1017A8003002092AA3F13003F3D9B3F59A7F28BF91
:1017B8004FF49A73072B42D9DFED236A1A46F7EEE6
:1017C800007A083A072A67EEA67AFAD803F00703E0
:1017D8002BB1F2EE046A013B67EEA67AFBD124B383
:1017E800C7EE276A5DF8044B20EE260A7047537847
:1017F800A3F13001C8B2092802F10102AAD8F2EE19
:10180800046AF0EE665A07EE901AF8EEE77A12F8D4
:10181800013F87EEA66AA3F13001C8B2092866EE37
:10182800A56A37EE067AEED994E767EE276AD9E714
:10183800901C91780124A7E7F7EE007ACFE7F7EE3E
:10184800007AC5E70000000020BCBE4CB5EEC00A17
:10185800DFED317AF1EE10FACCBF30EE270A30EE28
:10186800670ADFED2E7A20EE270A30B5FDEEC07A42
:1018780087B017EE904A054684EAE470002303A96E
:10188800A0EBE4700193009302932BF077FE002CF9
:10189800ACBF20232D2303A88DF800302DF058FB72
:1018A800012803A924D002282DD0032805BF3023FE
:1018B800684668468DF801302FF073FC68462DF0B5
:1018C80047FB0338C4B22246694628462FF0A0FCDD
:1018D80000232B5528462DF03BFB2E22431C2A546F
:1018E8000DEB0401E8182FF079FC284607B030BD4D
:1018F800302368468DF801308DF802308DF80330BA
:101908002FF04FFCDAE7302368468DF801308DF868
:1019180002302FF046FCD1E76F12033A00007A44F8
:101928002DE9F041064615460846B6FBF2F43CB9E7
:1019380005FB1464124B1B5D00F8013BBDE8F08108
:10194800B4FBF2F767B90E4B05FB174705FB1464A8
:10195800DA5D00F8012B1B5D00F8013BBDE8F08162
:10196800B7FBF2F8B8F1000F02D04046FFF7D8FFF6
:1019780005FB1878024B13F8082000F8012BE3E761
:101988000C3D0308104B2DE93048D3E9004554EAD3
:1019980005020BD103460122002018715871987175
:1019A8009A70DA7018801881BDE83088074B1A6879
:1019B80014EB020B45F1000C5A466346FEF746FC51
:1019C8000120BDE8308800BFF8240020406C0020CA
:1019D800F0B402888578154FC37804794179A2F26A
:1019E800B27202F0030606EB4606013D05EB8605DA
:1019F800013B37F815608579008940F2B5579208A0
:101A080007FB0232931903EB430304EBC303C3EB55
:101A1800031301EB8303C3EB031305EB83030021DB
:101A28004FF47A72C2FB0301F0BC704778120308C6
:101A3800FAB170B48E18044603E0101A14D1B142FA
:101A480014D014F8012BA2F14103192B11F8013B12
:101A5800A3F1410598BF2032192D03F12000ECD9DC
:101A6800D01A01D1002BEAD170BC7047002070BC9D
:101A780070471046704700BF4FF0FF32FFF7D8BFDE
:101A8800A0F16103192B98BF20387047A0F14103DA
:101A9800192B98BF20307047202805D00938042812
:101AA8008CBF002001207047012070476138192839
:101AB8008CBF002001207047413819288CBF0020B6
:101AC80001207047303809288CBF0020012070475A
:101AD800A0F13003092B07D920F02000413819283C
:101AE8008CBF0020012070470120704730B4026885
:101AF8001146531C036011F8024B0160D31C517846
:101B080003609378151D05601B0443EA0123D07810
:101B1800234343EA006030BC704700BF0368591C88
:101B28001A46016012F8021B0260587841EA002048
:101B3800704700BF03685A1C02601878704700BFDE
:101B480038B50446006815462EF090F922682A44F4
:101B5800226038BD036810B40A0A5C1C04601A705D
:101B680003685A1C026019705DF8044B704700BF87
:101B780003685A1C026010B4197003680A0A5C1CD6
:101B880004601A7003680A0C5C1C04601A7003680D
:101B9800090E5A1C026019705DF8044B704700BFAB
:101BA80003685A1C026019700368090A5A1C02600B
:101BB800197070472DE9F047002488B080460F4619
:101BC8001E46A14605AD531C0393117839B3252948
:101BD80033D1931CCDF810900393507830284ED011
:101BE8004FF0000AA0F13003DBB2092B42D96C2870
:101BF80019D0642800F0938024D825281CD063D9F4
:101C0800582876D063281BD131784046B847039AC4
:101C1800531C03931178043601340029D7D1204688
:101C280008B0BDE8F087039B5A1C03921B78642B0D
:101C38007CD02AD8252B54D1252140460134B847D9
:101C4800039AC0E7732833D044D975284FD106F1D9
:101C5800040E30682B4600220A217646FEF7BEFAAB
:101C6800049A0095534639464046FEF7A9FB039A65
:101C78000444A8E704AA03A922F0CEF9B7E7D31CC5
:101C8800039390784FF0010AACE7732B10D05BD91F
:101C9800752B3AD0782B96D1A3F15802B2FA82F27A
:101CA800306852092B4610210436FEF797FAD7E719
:101CB8003368049A0093394600234046FEF780FBB8
:101CC80004360444039A7EE70028B9D1204608B0B8
:101CD800BDE8F0876E28B3D1039A336804361C60D8
:101CE80071E72AD9582BD7D0632B8DD06BE778288A
:101CF800A6D1A0F15802B2FA82F2306852092B46F6
:101D08001021FEF76BFA0436AAE706F1040E3068D4
:101D18002B4600220A217646FEF760FAA0E7331D1B
:101D2800306829461E46FEF72BFA99E7331D3068BE
:101D380029461E46FEF724FA92E7002B7FF443AFAC
:101D4800204608B0BDE8F0876E2BC6D03BE700BF41
:101D58000EB400B584B005AB019053F8042B0649C6
:101D6800039301A8FFF726FF019B00221A7004B015
:101D78005DF804EB03B07047BD0300082DE9F04798
:101D880007468CB01E469246002A6AD1154614466C
:101D98000A8840F2B1739A423AD98B78581E0B28B8
:101DA80036D891F803E00EF1FF301E2830D891F8AC
:101DB80004C0BCF1170F2BD891F80590B9F13B0F6F
:101DC80026D888793B2823D8B1F80880B8F57A7FD7
:101DD8001ED24FF00108002E34D109890491002C3D
:101DE800B4BF2D212B21002CB8BF6442039005916C
:101DF8000795CDF80890CDF804C0CDF800E0384636
:101E080006942F49FFF7A4FF40460CB0BDE8F087C1
:101E18000023012118468E46ADF824308DF828306D
:101E28008DF829308DF82A30ADF82C3099469C462B
:101E38001A4698468DF826108DF827100B4609A9E2
:101E4800002ECAD00390CDF80890CDF804C0CDF884
:101E580000E038461B49FFF77BFF40460CB0BDE861
:101E6800F087194C84FB0234A318D417C4EB63140D
:101E7800C4EB0415A2EB85052DB2002D0846B8BFAA
:101E88006D42FFF7A5FD4FF47A720023804689461C
:101E98002DF028FD3C230AFB030A4FF47A72002335
:101EA800404649462DF01EFD4FF47A7192B2002348
:101EB800C1FB0A2309A8FEF7C9F924B209A967E7F3
:101EC800543D0308343D0308898888880FB430B529
:101ED80083B006AB0A490B4853F8042B096800681D
:101EE8000193FFF767FE084C0546206805F08AFD58
:101EF8000028FAD0284603B0BDE8304004B0704747
:101F0800C8420020CC42002094240020DFED2B7A28
:101F1800B4EEE70AF1EE10FA4ADDDFED296A9FED2B
:101F2800297A01E0B0EE670AB4EEC70AF1EE10FABA
:101F380070EE667AF6DC9FED247AF4EEC77AF1EE5D
:101F480010FA38D5DFED1E6A9FED207A01E0F0EE39
:101F5800407AF4EEC77AF1EE10FA37EEA60AF6D414
:101F6800DFED1B7AB4EEE70AF1EE10FA14DDDFEDCF
:101F7800137A37EEC00A60EE006A9FED166A9FED8D
:101F8800167ADFED167AA6EE867A20EE266AE6EE57
:101F9800877AA6EE270A7047DFED117AB4EEE70AD2
:101FA800F1EE10FA44BFDFED087A37EEC00AE2E737
:101FB800F0EE407ABFE7B0EE670AD1E7DB0F4940A1
:101FC800DB0FC940E4CB1641DB0F49C0E4CB16C197
:101FD800DB0FC93F92E741B99730083C15A82ABEE4
:101FE800DB0FC9BF09B909E0194690FBF1F301FB02
:101FF80013030846002BF7D1084670470146FBE754
:1020080007EE901AF8EE677A9FED837A27EE800A3A
:1020180020EE070AFDEEC07A17EE903A2033402BE7
:1020280000F28C80DFED7D7AB4EEE70AF1EE10FA6B
:1020380040F3E880B0EE407A9FED796ADFED796A87
:1020480001E0B0EE677AB4EEE67AF1EE10FA77EED8
:10205800467AF6DC9FED747AF4EEC77AF1EE10FA60
:1020680040F1CD809FED6E6ADFED706A01E0F0EE21
:10207800477AF4EEE67AF1EE10FA37EE867AF6D47D
:10208800DFED6B7AB4EEE77AF1EE10FA51DCDFEDB2
:10209800697AB4EEE77AF1EE10FA44BFDFED627ABE
:1020A80037EEC77A27EE076ADFED635ADFED637A0A
:1020B800DFED636A9FED635AE6EE257A67EE065A0E
:1020C800E6EE276AF7EE007AA5EEA67AF0EE675AF2
:1020D800E7EE055AE7EE457A87EEA55ADFED547A22
:1020E80030EE277AFDEEC76A16EE903A2033402B81
:1020F80029D99FED557AF6EE006AB7EE006AF7EE39
:10210800004AC4EEA57A0023836143610362C36178
:1021180080ED045A67EEA66A27EE866A27EE877A6C
:10212800C0ED006AC0ED026A80ED016A80ED037AB5
:102138007047DFED3A7A37EEC77AB3E7B7EE005A61
:10214800F0EE455ACAE7B4EEE70AF1EE10FA5FDDA1
:102158009FED336ADFED336A01E0B0EE677AB4EEE3
:10216800E67AF1EE10FA77EE467AF6DC9FED2E7AF3
:10217800F4EEC77AF1EE10FA47D59FED296ADFED44
:102188002B6A01E0F0EE477AF4EEE67AF1EE10FA07
:1021980037EE867AF6D4DFED267AB4EEE77AF1EEFA
:1021A80010FA27DCDFED237AB4EEE77AF1EE10FAC5
:1021B80044BFDFED1D7A37EEC77A27EE076ADFEDF9
:1021C8001E4ADFED1E6ADFED1E7AE6EE246A67EE30
:1021D800064AE6EE267AB7EE006AA4EEA77AF6EE8D
:1021E800006A36EE476AF8EE007A27EE277A66EE3E
:1021F800266A84E7DFED097A37EEC77ADDE7B0EEC5
:10220800677A3DE7F0EE407A24E7B0EE677AC2E7F6
:10221800F0EE477AAAE700BF27D4D236DB0F494051
:10222800DB0FC940E4CB1641DB0F49C0E4CB16C134
:10223800DB0FC93FDB0FC9BF92E741B99730083CB4
:1022480015A82ABEF304353F0000008070B4066864
:102258008E4217D90139751E002311F8014F082243
:10226800634013F0800F4FEA430318BF83F0D50390
:10227800013ADBB2F5D18D42EFD1721C02603370A6
:1022880070BC70470023F8E710B44C09012250F8DD
:10229800243001F01F0102FA01F10B4340F8243009
:1022A8005DF8044B704700BF4B0901F01F0150F85F
:1022B8002320012303FA01F1114214BF184600201C
:1022C800704700BFF8B584894FF6FF764FF47A74EB
:1022D8002BB311B30F78013101E0B44217D005894F
:1022E800013CAD07A4B2F8D507734FF47A7402E045
:1022F800BCB2B4420BD00589ED0704F1FF37F7D51E
:10230800057BEDB20AB115700132013BE0E706F03A
:10231800DFFA003018BF0120F8BDFF27DFE70120F2
:10232800F8BD00BF08B540F2E93300E09BB102896F
:10233800013B12F0020F9BB2F8D0017340F2E9336F
:1023480000E043B10289013B12F0010F9BB2F8D0C3
:10235800007BC0B208BD06F0BBFAC0B208BD00BF22
:1023680038B500F0EF03C02B0B4B0C4C0CBF012110
:1023780000210546186806F027FAD4F8E030B4F8CA
:10238800E4201A8506482946FFF7CCFFD4F8E03048
:10239800B4F8E4209A6138BD40500020104F002066
:1023A800003800402DE9F041404CC37A94F83420BD
:1023B8003F4F9A423B70884604D004F120013D48C3
:1023C80006F06BFB3C4D1E23002605F1480085F8FE
:1023D8004E3085F84F602CF043F805F15003052284
:1023E800184685F8562085F85760A3632BF0DCFF64
:1023F800A06B06F0B3F83B780B2B40D008232F4D89
:1024080088F800307D6021F047F905F1100021F0CF
:1024180011F92B4806F0FCF808B1236ADBB9002350
:1024280084F84030274B1A780AB903221A703146CB
:102438000F2013F091F8C020FFF792FF05F0E6F89F
:102448007A68A36E5268226601330022E065A366AB
:102458006266BDE8F0811C4D6364A5F124030FCBCF
:1024680085E80F0094F8583003F00F03E1180122B3
:1024780091F8486084F8583084F84020D2E70E225A
:10248800124B134988F80020124A09681B68126821
:10249800114D7D604B405340E36321F0FDF805F199
:1024A800100021F0C7F80D26B3E700BFB0220020C6
:1024B8000000002020750308104F0020281303088F
:1024C800584F0020E22B0020F8220020ACF7FF1F15
:1024D800B0F7FF1FB4F7FF1FE412030838B3F8B5CD
:1024E800134F402904464FF0F0000D4628BF402501
:1024F800FFF736FFD7F8E030B7F8E4201A85452112
:102508000C48FFF70FFF65B1013D0A4E54FA85F5F7
:10251800013CFF213046FFF705FF04F8010FAC42EC
:10252800F7D1D7F8E030B7F8E4209A61F8BD7047E2
:10253800104F0020003800402DE9F047C74C237F9A
:102548008AB073B3002380464020A669237721F020
:1025580057F800F00303022B00F0C08010F02105AB
:1025680040F0C180BE4F3B780B2B00F0518194F8AE
:102578004030002B00F0D08015216846FFF7AEFFF1
:102588009DF80030552B00F00F81C020FFF7E8FEC2
:10259800022D11D10023A06BA4F87C3005F0E4FFD4
:1025A8000AE003F0FF05B4F87C3001339BB2B3F5C1
:1025B8007A7F75D8A4F87C3094F87430002B61D1F8
:1025C80094F840308BB905F021F8A36FA54AC01ADA
:1025D800904206D994F848301BB1636C002B40F048
:1025E8008A8028460AB0BDE8F0879D4F05F00EF8AE
:1025F8007E680246D6F800E0D4F88000652101FB29
:102608000EF1101A88420CD9A16EC4F880206329F3
:102618009ABFC1F1640189B200210023A4F86E10A9
:10262800A366D4F88410F368511A994250D8E06D23
:10263800216E131A8B42D4D9B3FBFEF6012E98BF34
:102648004218A020E265FFF78BFE94F85830334417
:1026580003F00F03E2180F2092F8481084F858305E
:1026680012F07AFFC020FFF77BFE636E1F2B00F28B
:102678008F807A68126822660133284663660AB03A
:10268800BDE8F08704F0C2FF236FC01AB0F5FA7FE7
:1026980096D9D020FFF764FE002384F874308FE7C2
:1026A80040F2E933A4F87C3004F0B0FF6E4BA3FB92
:1026B80000208009A3FB00239B094FF47A7202FBD8
:1026C8001303B3F5FA7FA06B12D905F047FF73E740
:1026D8000123C4F8842084F86C30A8E794F84030CB
:1026E800002B40F0AD80C020FFF73AFE002563E7DD
:1026F80005F03AFF60E75D4E236206F124030FCB35
:10270800574D2D7884F83450012586E80F0084F859
:10271800405004F0E1F864E7052168461D46FFF7DC
:10272800DDFE9DF80030AA2B7FF42FAF7868DDF826
:1027380001E04068A36E2066CEF3031001304C49D7
:102748004C4AC4F844E00EF00F0701334FF0000E76
:10275800092801EB0711E66528BF0920A36602F1E5
:102768001007C4F864E011F8013B1B1A02F8013F96
:102778009742F8D194F8583003F00F03E2180F206D
:1027880092F8481084F8583012F0E6FEA667FCE686
:10279800394B7A681B7892682266032B7FF421AF45
:1027A800364B00221A801CE7DDF80120636C9A4240
:1027B8007FF4EBAEFDF76EFFA36E7A68E6655268AC
:1027C800656601332266A366B8F1000F0DD00AAB27
:1027D80053F8232DC8F8002059689A68DB68C8F8B0
:1027E8000410C8F80820C8F80C3094F858300133A1
:1027F80003F00F03E2180F2092F8481084F85830BD
:1028080012F0AAFE94F840300225002B89D0BCE6CD
:1028180094F84090B9F1000F32D068462521FFF7AF
:102828005DFE9DF80030582BEA4671D0AA2B6FD078
:10283800562B6DD094F87430002B7FF4A9AEA4E623
:1028480094F85830013303F00F03E2180F2092F880
:10285800481084F8583012F07FFE44E7B022002078
:1028680000000020400D0300D34D6210D422002048
:102878006C130308F7220020E22B00206C62002072
:1028880068461B21FFF72AFE9DF80030AA2BEA466E
:102898003ED037D9BB3B012B38D8A36E79689DF859
:1028A8000B20496821660133FF2AE665C4F8649065
:1028B800A36659D00AAD04F1480755F81D0D69689B
:1028C800AA68EB680FC74FF0FF33E16BDDF80170C2
:1028D800CDF80510CDF80B3001226B60AB60EB60D2
:1028E8002B616B612B83E02084F87420A667266730
:1028F8006764FFF735FD51462522052012F004FED6
:10290800002597E7562B03D0582B01D0002591E7D7
:10291800DDF80520E36B9A42F8D1DDF80120636CFD
:102928009A42F3D1FDF7B6FEA36E79689DF80020B0
:102938004968E66501330025582A2166A36665665D
:1029480015D094F87430002B7FF422AE94F85830E8
:10295800013303F00F03E2180F2092F8481084F8AF
:10296800583012F0F9FD65E70DF10B05ABE7B8F14A
:10297800000F16D00AAB53F81F0DC8F800009A686C
:102988005968C8F80820DA68C8F804101869C8F83F
:102998000C2059699A69C8F81000C8F81410C8F8CA
:1029A800182094F86C300BB90225CAE7274BA18A86
:1029B8001B88B4F86E2097F808808DF80F1003EB89
:1029C80083035B009BB28DF80B301B0A080AB8F131
:1029D800400F4FEA12218DF80C304FF0FF334FF0C3
:1029E800000528BF4FF040088DF813208DF810001F
:1029F800FC228DF81410CDF81930AA21CDF8153025
:102A0800CDF81D30CDF82130E020FE238DF81130AF
:102A18008DF800108DF809508DF80A508DF80E5079
:102A28008DF812508DF80D20FFF79AFC424651465A
:102A3800052012F069FD1522012384F86C502667E1
:102A48003A7284F874300225A4E500BFA852002029
:102A5800028822F040021204120C0280028822F03E
:102A680038031B041B0C59B141F48071002991FAF9
:102A7800A1F2B2FA82F108BF4FF0FF310139C90063
:102A88000B439BB2038003889BB243F0400303804F
:102A9800704700BF2DE9F84FDFF8D8B03148DFF8AC
:102AA800D8A0DFF8D880012304218BF80030FFF785
:102AB800CFFF2D4B186805F051FD05212948FFF778
:102AC80031FC00212748FFF72DFC06212548FFF798
:102AD80029FC00212348FFF725FC9AF800402148EB
:102AE800042144F00104FFF71DFC21461D48FFF7AF
:102AF80019FCB8F80030B3B11C4D1D4F194E002415
:102B080095F8019007213046FFF70CFC49463046FE
:102B1800FFF708FCB8F8003015F8012F07F8012F67
:102B280001349C42ECDB07210E48FFF7FBFBFF2139
:102B38000C48FFF7F7FB9AF800400A480421FFF712
:102B4800F1FB21460748FFF7EDFB074B186805F036
:102B58000BFD02210348FFF77BFF00238BF80030B1
:102B6800BDE8F88F00300140985000201B3A002043
:102B7800433C00202F3C00207C4000203C140020D7
:102B8800F8B5114D114FC1F1030646EA800604213C
:102B98002846FFF75DFF386805F0E0FCF6B2102420
:102BA800E1B22846FFF7BEFB013431462846FFF75D
:102BB800B9FB202CF4D1386805F0D6FC0221024874
:102BC800BDE8F84044E700BF0030014098500020BD
:102BD800F8B5444C44480421FFF73AFF206805F053
:102BE800BDFC424B1B78012B6DD058D3022B4ED124
:102BF8003F4D08232B704FF4C3733E4E3E4F338036
:102C080002210020FFF7BCFF04213748FFF720FF0F
:102C1800206805F0A3FC2D7833480021FFF782FBDC
:102C280029463148FFF77EFB344B2F481D78022197
:102C3800FFF778FB29462C48FFF774FB304B2A48EE
:102C48001D780321FFF76EFB29462748FFF76AFB2B
:102C58002C4B25481D7804210D43FFF763FB2946BB
:102C68002148FFF75FFB206805F07EFC02211E4823
:102C7800FFF7EEFE3288244800212EF08AFA7B7A8C
:102C880063B1224B1B7823B300237B72F8BD184D28
:102C98002B785B06AFD54FF4F073AEE7F8BDA021F3
:102CA8001148134DFFF73EFB00210F48FFF73AFB91
:102CB80000F00603022B03D000F0050001280DD018
:102CC80008232B7097E70A4D48232B704FF4F073B5
:102CD80093E7FFF7DFFE00237B72F8BD48232B70D4
:102CE800D9E700BF98500020003001409C500020D8
:102CF8001C1600203C14002000000020A3500020D7
:102D0800A45000207C400020443C00202F3C0020A0
:102D1800F0B55B4B5B4A97B01968914200AF00F081
:102D2800A3805949594A00234FF47000C1F888001C
:102D38003B607B60136843F48033136003E03B68B7
:102D4800B3F5A04F09D0136803F400337B603B68E8
:102D580001333B607B68002BF1D04C4B1B6813F4AC
:102D6800003318BF01237B607B68012B52D0464C8F
:102D7800464B474AE260474A596A11605A6A42F02C
:102D880080725A625A6942F4FC025A610025032291
:102D980007F10801012341F6FF764FF09040FD60EE
:102DA800BE603A73BB7318F0B5FD4FF6FF7307F1B9
:102DB80008013948BB6018F0ADFD07F10801374834
:102DC800374E18F0A7FD07F10801364818F0A2FDA4
:102DD80007F10801344818F09DFD07F10801334850
:102DE80018F098FD07F1080018F048FBBB68304957
:102DF800304AA1FB031330499B0CF0204FF0070E1B
:102E08005C370B60566084F823009560C2F800E0D8
:102E1800BD46F0BD294A1D4B122111605A685A60FF
:102E28005A685A605A6842F480625A605A6822F4B2
:102E38007C125A605A6842F4E8125A601A6842F0E2
:102E480080721A601A689201FCD559680F4A21F0FD
:102E580003015960596841F002015960536803F051
:102E68000C03082BFAD182E700221A6062B6144BD1
:102E78001B6883F30888134B1B689847FEE700BF5D
:102E8800FC9F0020EFBEADDE00ED00E00010024028
:102E98000005FA05506700200004004800080048B3
:102EA8003F190100000C00480010004800140048B9
:102EB80083DE1B4310E000E0446C00200020024049
:102EC80000D8FF1F04D8FF1F70B50F4C0F4DC0EB83
:102ED800C00004EB8004686926693043686182B0E9
:102EE8009209667BA1600025012101A863618DF824
:102EF80004608DF805208DF806508DF8071018F03D
:102F080087FA02B070BD00BF881F00200010024081
:102F1800074BC0EBC00030B403EB8000054C0569DB
:102F280063692B4363610176427630BC704700BF0A
:102F3800881F0020001002402DE9F04F5E4C54F825
:102F4800204083B0002C71D0A66D984691465B4B0B
:102F580072682265A160236004F15E014FF48073FA
:102F680004F5AF726161A261E36023610746307EB8
:102F78002BF0FCF9F068A8B1514B00215A68904237
:102F880003F11C0300F0928001310C29F6D10020D6
:102F98007A1CD2B20C21FFF7BBFF236DF268626383
:102FA8002433E364B068D8B1454B00215A68904295
:102FB80003F11C0378D001310C29F7D100257A1CC4
:102FC800D2B20B212846FFF7A3FF2346F27E3D49E4
:102FD8002846FFF779FF236DB268A2632833A364FC
:102FE80094F85D0004F0E8FE054694F85C0004F0EF
:102FF800E3FE18F0080F824696F819B01AD0CDB142
:1030080018F0110F4FF00B0307F1010714BF4E2101
:103018003E21EF715A46AB71284603F0E9FD18F0DE
:10302800010F45D0636B5BB3A36B4BB3204603B072
:10303800BDE8F08F18F0010F0CBF4FF02E084FF0CD
:103048004E0819F0020F09D045B10B227B1CAA715A
:10305800EB7128465A46414603F0CAFD19F0010FA4
:10306800E0D0BAF1000FDDD001370C238AF80770E1
:103078005A4641468AF80630504603F0B9FDD1E772
:10308800337FB27E8DF804209B090021012201A81C
:103098008DF805308DF806108DF8072018F0B8F96E
:1030A800204603B0BDE8F08FCDB288E7C8B26FE71D
:1030B800284605F053FAB5E7344500206C14030898
:1030C800881F0020F114000800B97047F0B595B0CA
:1030D80005462BF0F3FC6C4EC36802683260044668
:1030E800002B00F0C480284604F066FE674BC3F846
:1030F800880018B1292200238271C371227A644D95
:103108002E2103F075FD306804F012F92BF02EF92A
:103118003068604A038823F001031B041B0C0380FA
:1031280014A91E232B8001270F230025138021F8C3
:103138004C7D2D230293ADF80C50ADF80650ADF838
:103148000E502BF069FCE379ADF814506022990712
:10315800ADF816500695ADF81C50ADF81E50ADF8F8
:103168002050ADF82250049200F1838013F0010F33
:103178000CBF002202224FF48073ADF81470ADF832
:103188001C20ADF82030002304AA6179306806932A
:1031980003F04AFC617930683F4F2BF01DFC33681F
:1031A8005A6C42F400425A641A8892B242F0800281
:1031B8001A80E2796079196A92074CBF04220122C9
:1031C800824021EA02011962196A0A431A621A88BE
:1031D80092B242F001021A80207C00222921FFF7D6
:1031E80097FE2E49207C00236022FFF76DFEE068E1
:1031F800386018F065F8386803684FF6FE721340B7
:10320800036018F05DF809A818F02CF833686279A3
:10321800234938680A9134331344099380221023D0
:10322800002509A940F22A3E0E920B934FF4007232
:103238004FF400530D951095139511950F92129315
:10324800ADF830E018F01CF8627933680C2A98BFA2
:103258001449D86898BF31F812503A6812490543A2
:10326800DD601368012043F002031360087015B095
:10327800F0BD13F0010F0CBF2A4608220423ADF855
:103288001E20ADF816307EE7EC400020B02200206A
:10329800E2400020E0400020E840002061060008ED
:1032A800CC350020C4360308E44000200348D0F899
:1032B8003C3113B100F59A7018477047881F0020F9
:1032C8000348D0F8203113B100F58C7018477047C7
:1032D800881F00200348D0F804310BB1FC30184790
:1032E800704700BF881F00200348D0F8E8300BB1B2
:1032F800E0301847704700BF881F00200348D0F807
:10330800CC300BB1C4301847704700BF881F00206D
:103318000348D0F8B0300BB1A8301847704700BF49
:10332800881F00200348D0F894300BB18C30184720
:10333800704700BF881F00200248836F0BB17030B0
:1033480018477047881F00200248C36D0BB15430DE
:1033580018477047881F00200248036C0BB13830AB
:1033680018477047881F00200248436A0BB11C3079
:1033780018477047881F00200248836803B1184720
:10338800704700BF881F0020F8B505015A4C5B4BF9
:10339800625961199A4204EB050704BF01230B73B4
:1033A8000646387A2AF0E2FF3B7A03F01F015B09F0
:1033B8000122022B02FA01F278D0032B71D0012BE3
:1033C80067D063190136187904F0F6FCF6B207469F
:1033D80010B11223C67183716319587904F0ECFC9B
:1033E80010B11323C67183716319987904F0E4FC52
:1033F80010B11423C671837166190E21F27938460B
:1034080003F0F6FB707904F0D7FCF2790E2103F093
:10341800EFFBB07904F0D0FCF2790E2103F0E8FB61
:103428006359374A934251D0344A934259D0354A66
:10343800934240D02C44227B002A2FD10120022421
:103448009A8822F480521204120C9A80998889B2C0
:1034580041F4805199801A8802F4415242F445722D
:10346800024322431A809A8822F470621204120CD2
:1034780042F4E0629A809A8B22F400621204120CE1
:1034880007219A8319821A8892B242F040021A8060
:10349800F8BD1D4B996A0A439A6292E700200446D8
:1034A800CEE7194B19690A431A618AE7164BD9689E
:1034B8000A43DA6085E702F5EA32116941F400410E
:1034C8001161116921F400411161B3E702F560420D
:1034D800D16841F48051D160D16821F48051D16024
:1034E800A8E702F5EC32116941F4804111611169D4
:1034F80021F4804111619DE75845002000380040C3
:1035080000300140003C0040001002401749184BB1
:10351800184A194810B4D1F8884044F47004C1F826
:1035280088401C6844F001041C605C6822405A60B2
:103538001A6822F0847222F480321A601A6822F41F
:1035480080221A605A6822F4FE025A60DA6A22F06F
:103558000F02DA621A6B002410404FF00062186301
:103568009C608A605DF8044B704700BF00ED00E086
:10357800001002400CC07FF8CCFC00FF2DE9F04F92
:103588002DED068BA04BA14A1C7899B000F59C4103
:10359800203181460B911160002C00F000879C4A75
:1035A8001268904240F283809A4A069216689A49B5
:1035B8009A4A0591013C1C70994B049206F4805676
:1035C8000893002E40F08180964B1B78022B01F067
:1035D8005781042B01F0C281012B01F07681924BB7
:1035E8009945089B9B7800F2AB85002B40F0AC8591
:1035F8008E4B0793069B1E6816F4805940F09D86F3
:103608008B4F049BB3F90610059B5D8BA942B4BF91
:1036180000250125874B1B6813F080535FD0079A5C
:10362800127812F0010260D00598408C884241F36C
:10363800D981002D5FD1804C94F88C1000295AD183
:103648007E487F49006890F82D0000240C604C608B
:103658008C607C4900284FD10870002A50D0F106B0
:103668004ED5794A1278D2064AD4B9F1000F47D11B
:10367800002B45D1730243D4744B1B78002B02F006
:103688004080734B9B78002D42F068803BB1714AB3
:10369800714B12681B689B1A002BC2F28A8010209B
:1036A800654C29F08BFB012384F88D3028E0594BB9
:1036B80006931E68594B584A049306F48056584B93
:1036C80005920893002E3FF47FAF00215948FEF77A
:1036D800EBFD00287FF478AF10F090FE74E77002DD
:1036E8009DD4079A127802F00102534C002184F805
:1036F8008C10002DA4D0534901200870002AAED1A7
:10370800564B1A78002A40F0BD800599049C488BD6
:10371800B4F900E0898BB4F902408645CCBF802615
:10372800002646F040038E45A8BF33469B0843F069
:1037380080068442C8BF334643F040068C42B8BF77
:103748003346049E9B08B6F90440B6F9066043F078
:10375800800E8442C8BF734643F0400E8C42B8BF07
:1037680073469B0843F0800E334C8642C8BF7346AD
:1037780043F0400E94F88EC08E42B8BF73469C4505
:1037880001F05583A4F8902084F892202F4984F8FA
:103798008E300E78002E01F05F825F2B01F0CA8216
:1037A8006F2B01F0E282079B1B78D8076AD494F844
:1037B8009220002A66D1B4F99030322B62DD94F859
:1037C8008E300120572B84F892004DD00699096855
:1037D800490741F17B815A2B41F0788194F8943064
:1037E800002B41F0A48794F8963083F0010384F805
:1037F8009630002B41F0A4870C2029F0DFFA184BF3
:10380800184D099341E000BFDC660020886600205F
:10381800D8660020905B0020485000207862002085
:103828009C350020E22B0020404B4C0049410020F1
:10383800C84D0020585700208C23002090550020A8
:10384800342C00208826002064620020A41B00205D
:103858009C570020406C00204C2B0020D3400020B7
:10386800945500208C5500208F4B904A19684FF4CE
:103878007A73B3FBF1F3C3EB431103EB8103DB0072
:10388800A2F8A8308A4B8B4D0993069B1B685C07EE
:1038980000F1CA860DF15009874EDDF810A00A958F
:1038A8000023C9F8043016931493179334460FE095
:1038B800414616A8FEF7F8FC834688B9A37894F821
:1038C80003C094F801E0634515D30534A7423BD003
:1038D80094F80080B8F1270FF7D82379012BE7D1A6
:1038E800A37894F803C094F801E0634580F0F5826A
:1038F8004FF0010B58460EF1040240F6330E3AF928
:1039080012207245A8BF7246B2F5617F4FF01901C7
:1039180040F2833EB8BF4FF4617211FB03E3934258
:1039280080F2E38211FB0CE19142B4BF002501252E
:10393800002840F0D582AB45C7D0414648460534FB
:10394800FEF7A2FCA742C3D1149B16995B4A0A9DB5
:103958004B40149399E803001378594A82E803000E
:10396800002B40F0DF85574B1A78002A00F0598564
:1039780001215348FEF798FC002840F0D682089BA6
:10398800DB78002B40F0D1822B881FB227F001078B
:103998001FFA87F84345A5F8008000F0EC874A4FE6
:1039A8004FF002090E204FF0140B4FF0FF0A87F872
:1039B800009087F801B087F802A029F0FFF949467E
:1039C8003F48B5F80080FEF76FFC002841F0818180
:1039D80028F002039BB243452B800BD03A4B1421AD
:1039E800FF2202270E201F7059709A7029F0E6F9FD
:1039F800B5F80080354B364A197850680A9318F0A4
:103A0800030F08BF81F00201C1F340010B9204F0DB
:103A1800B1FD24212A48FEF747FC30B9079A1378EC
:103A2800580744BF23F0040313700C212448FEF701
:103A38003BFC2A88002800F0968242F480739A4260
:103A48002B8009D0204B022214211A700E20FF224D
:103A580059709A7029F0B2F91E4B1B78082B00F0A8
:103A68008E820E2B00F08B82069BD3F8008018F410
:103A7800806F69D0184B1B79002B00F03882142115
:103A88000F48FEF711FC002840F0368226F0B8FFF8
:103A9800012029F0EDF8002853D0DFF840A00027D6
:103AA8004FF0CC0BA1461EE0805B00200859002097
:103AB800945500208C550020644D0020B45D0020F2
:103AC800585700202E3C0020D44800200B6C0020C2
:103AD8000C6C0020982C00205C530020A867002064
:103AE800DFB2022F2CD80BFB07F87B1C5AF80840D2
:103AF800002CF5D1032290F9023002940192C27889
:103B0800E24951F822200092184622462346012114
:103B180028F044FF034607EB470000EB00100C9326
:103B280053B121460AEB8000CC222DF032FB0C9BCE
:103B38004AF808300137FFB220F002FB0028D0D144
:103B48004C46069BD3F80080079B93F800A0D04B07
:103B58001AF0010A00F0408201221A70099B0499A8
:103B68001B68B1F906105A89CA48012791420770A3
:103B780080F21882C84B4FF07E521A60059BC74FDF
:103B8800B3F81890049B97F90420B3F900303878FB
:103B980097F801C0002AA3EB090714BF01224FF0D0
:103BA800FF32002FB8BF7F42B7F5FA7FA8BF4FF4A6
:103BB800FA77B84280F2B4823F1A07EE907AF8EEAC
:103BC800E77AB74F4B45C7ED007A03DAF1EE677A2B
:103BD800C7ED007A049BB3F902E0AEEB0903002BB2
:103BE800B8BF5B42B3F5FA7FA8BF4FF4FA739842A7
:103BF80080F293821B1A07EE903AF8EEE77AF145C5
:103C0800C7ED017A03DDF1EE677AC7ED017A049B0F
:103C1800B3F90400A0EB0903002BB8BF5B42B3F56E
:103C2800FA7FA8BF4FF4FA736345CCBFA3EB0C032C
:103C3800002302FB03F207EE902AF8EEE77A4845E4
:103C4800C7ED027ABCBFF1EE677AC7ED027A18F4C5
:103C5800805800F03F82B1F5FA6F924BA8BF4FF43D
:103C6800FA61B1F57A7F1A78B8BF4FF47A71A1F585
:103C78007A71002A40F0FD878B4ADFF844E282FB24
:103C88000130CB17C3EB6013581C6FF0630C3EF97F
:103C980010003EF913E00CFB0313A0EB0E0003FB2E
:103CA80000F382FB0312DB17C3EB62139E440FFA87
:103CB8008EFE07EE90EAB8EEE78A87ED038AB8F140
:103CC800000F40F070842B885A0640F1FB8077493A
:103CD800774A91ED018AD2ED019A92ED026A91ED4F
:103CE800034A92ED030A91ED029A92ED007AD1ED22
:103CF800005AD7ED011A97ED002A6E4A6E4938EE40
:103D0800445A79EEC63A77EE007A65EE233A75EEB4
:103D1800C96A75EE890A37EE401A66EEA76AB0EEF0
:103D2800633AA0EE813A13F00303B0EE665A78EED8
:103D3800044A79EE867AA0EE815AF0EE638AA4EE00
:103D4800A73AD4EEA78AA4EEE75A33EE263AF0EE65
:103D5800687AF0EE674AF6EE008A35EE88AAE0EE59
:103D6800C14A28EEC33A35EE635A77EE293A77EE20
:103D7800E67AAAEE233A25EE285A76EE403A34EE51
:103D880049AAE0EE817A74EEA64AAAEE235A34EEE6
:103D9800094A37EE697A64EEA84A63EE036AE4EEEC
:103DA800074A75EEC85A36EE006A67EEA87AB0EE92
:103DB800667A95EE057AE5EE056AE5EE867AB1EE65
:103DC800648AF0EE665AF0EE476AB1EE674AE8EEAA
:103DD800246A63EE270A67EEA43AE4EE275AB1EEA6
:103DE800450AB0EE609AB0EE631AA4EE277A23EE85
:103DF800244AE7EEA76AA5EE249AA0EE031AE8EE95
:103E0800245AB0EE448A31EEA16AE0EE240AA5EE07
:103E1800278A66EEA16A72EE028AE5EE033A61EE3F
:103E2800211A26EE096AA4EEA47AA0EE274A0CBF4E
:103E3800D7ED022ADFED212A82ED005AA2EE256A8B
:103E4800E8EEA06AE2EE081A73EEA33A27EE227AA9
:103E580034EE044AF0EE005AE2EEA36AA2EE846A57
:103E6800A1EEA57AC7ED016AC1ED366A81ED356A22
:103E780087ED006A81ED377A82ED013AC2ED027A68
:103E8800C2ED034AF3B987ED027A1BE0F036030866
:103E98004A410020C02600203C26002074570020FC
:103EA8006C530020644200201F85EB51A0000020C5
:103EB8005C1B0020941B00208C23002000000000C5
:103EC80098610020BAF1000F40F02D8126F0A8F883
:103ED80019B0BDEC068BBDE8F08F00254FF0010B43
:103EE800414616A8FEF7D0F925E5002520E5079BF1
:103EF8001B78D9077FF5CAAD4FF40F7029F0B8FCCD
:103F080000283FF41EAE18F085FF4FF40F7029F01B
:103F18006BFC00283FF415AE18F07CFF4FF40F70CF
:103F280029F062FC0028EED10BE69A4B1B689F072C
:103F38007FF52AADB5F8008018F0010F7FF448AD81
:103F480048F0010398452B803FF442AD924B022282
:103F580014211A700E20FF2259709A7028F02EFF33
:103F6800B5F8008034E522F480739BB29A422B8026
:103F78007FF468AD894B1B78082B7FF472AD2A88D3
:103F880022F040039BB29A422B803FF46DAD824BE6
:103F9800022214211A700E20FF2259709A7028F0FC
:103FA8000DFF61E5B1F5FA6FB4BF187A1B7A9FED82
:103FB8007C7ABFBF8B1A4343C2F5FA6293FBF2F3D4
:103FC800C3F1640307EE903AF8EEE77A754B67EEB3
:103FD800877AC3ED007AD1E51B780693002B7FF42E
:103FE800BDAD714A1268002A3FF4B8AD6F4A079216
:103FF80012F8030CDFF8F4B11146D71E25F086FD40
:104008009BF80090079A002800F00785069BB9F1F5
:10401800000F53D107F10801787925F077FD0028C2
:1040280041F02C836249B87A25F070FD002800F031
:104038000785B9F1020F41F01D835E49F87B25F031
:1040480065FD002841F008835B49387D25F05EFD59
:10405800002800F00785B9F1040F41F0F9825749AB
:10406800787E25F053FD002841F0EE825449B87F50
:1040780025F04CFD002800F00785B9F1060F41F046
:10408800DF82504997F8230025F040FD002841F0D1
:10409800EB824D4997F8280025F038FD002800F0FC
:1040A8000785B9F1080F41F0DB82484997F82D00E0
:1040B80025F02CFD00283FF451AD09231A4602EBE8
:1040C80082021744424A7878B9788BF80030107029
:1040D800517043E5059B5A8B9142C0F2A483B1F518
:1040E800FA6FD4BFC2EB0101C2F5FA614FF47A73DB
:1040F80003FB01F137480378C2F5FA62B1FBF2F12C
:10410800002B3FF4B9AD4378334A01FB03F182FB3E
:104118000123C917C1EB6311AEE5DFED307A6EE517
:10412800DFED2E7A4DE50A9B19780B9B01F0010112
:10413800186804F01FFA19B0BDEC068BBDE8F08FC3
:1041480013B9089A01239370254B089A1D7892F8A1
:10415800214007931B2025F011FD012C05F00108D3
:10416800814600F0FF8505F00205089A1D4E92F879
:104178002030DFF87CA01C4F09959346052B00F2F0
:104188006E86DFE813F0BF00B5003700FD00FF00C2
:10419800F20000BF38550020D4480020982C002099
:1041A8000AD7233C3C2600204C4100208E480020A2
:1041B800984800209D480020A2480020A7480020D9
:1041C800AC480020B1480020B6480020BB48002079
:1041D80050410020644200201F85EB510000000080
:1041E8004941002090610020885500201D000020D2
:1041F800A41B0020012C04BF05238BF82030B8F144
:10420800000F12D0059B3088B3F91810002213460E
:1042180061F30F0260F31F4261F30F03049861F327
:104228001F430360032342600993BF4DDBF814105A
:104238002A68914280F0008547F230510322CBF87A
:104248001C108BF8202002200EF0AEF910F0D6F8E2
:104258002968DBF81C200A440421CBF818208BF8C5
:104268002010012C40F040862A68DBF81810914293
:1042780080F0F5859AF8000020B925F07FFC002829
:1042880040F0ED853A6822F002023A602A687388A5
:10429800642101FB03234FF480600022CBF8103027
:1042A8008BF820208BF803200EF04EF99BF8203075
:1042B80064E725F069FC012807D19B4D72882B68BB
:1042C800642101FB0233CBF81030B9F1000F02D0A2
:1042D800B379002B4BD1012C00F0C185924DDBF84E
:1042E80010102A689142C0F00C8601238BF8203008
:1042F800012C3AD0F379012B46D025F0C5FB9BF869
:1043080020303BE7B8F1000FD3D1099D4FF480600E
:10431800B9F1000F00F04F830EF02EF9089A002330
:104328001361002D3FF466A9284628F047FD069B37
:104338001E6816F480593FF463A91D217B48FDF7D8
:10434800B3FF00287FF45CA9794B03F1640703E00D
:1043580005339F4200F089851A78262AF8D1997882
:10436800DA789142F4D2FFF74CB96F4D8EE725F019
:104378008BFB03224FF47A738BF82020CBF81C3088
:10438800694D60E7684D6CE725F07EFB032240F637
:10439800B8338BF82020CBF81C30634D53E7654FBA
:1043A8003B78002B01F08780634BDFF89881DFF8BA
:1043B80098B1DFF898A1059345465E460490994662
:1043C8000EE019F804109847032C28DC88B93B78CC
:1043D8002AF8020F01349C4205F1040580F2498154
:1043E800072CE1B23046DBF80430EADD984700B22A
:1043F800EDE738F824206B88801A4FF47A719B1AFD
:1044080001FB00F040F6CA0290FBF3F0084490422A
:1044180040F2EE23A8BF10469842B8BF184600B233
:10442800D5E7DFF82C91DFF82CA1444F0A9209F167
:104438005A084FF0010B494619F8010C25F066FBA4
:1044480000B399F8040099F8023099F803E000EBFA
:10445800400107EB8101013BD1F8A02003EB4303A6
:10446800534493420ED097F8CC20C1F8A0300BFAF1
:1044780000F022EA00000A9B81F89CE0C1F8A43011
:1044880087F8CC0009F10609C845D4D12C4B264A37
:104498001B780A93099BDFF8C0A012681B680B936E
:1044A800AAF19C094FF0000B9046DAF8043083B368
:1044B8001F7877B3DAF80820A8EB0202002A0CDB91
:1044C80099F8CC20012101FA0BF122EA010208F542
:1044D800FA7189F8CC20CAF808100A9ACAB19AF871
:1044E800002059780432D2B2002940F0818205991F
:1044F8000498098B30F9122001F1C800824240F378
:10450800C58499F8CC109A7841FA0BF3D90740F191
:1045180043850BF1010BBBF1040F0AF10C0AC4D15E
:10452800FFF726BA024B1DE0406C002058570020C8
:10453800644D00203D4E0020485000208C23002070
:104548006D350020544E0020746600208A23002018
:10455800A5470020941403082824002005339C4212
:104568003FF401AA19782329F8D19878DA7890428B
:10457800F4D2AE48FDF798FE00283FF4F4A9AC4BFE
:104588001B6813F4003341F03C800022A94B11460C
:10459800985C142802F10C0200F0358701311829C3
:1045A800F6D1FFF7E0B91D21A048FDF77DFE28B13F
:1045B80000F017BC0536A6423FF485AB31782629B2
:1045C800F8D1B278F3789A42F4D2089BDB78002BC2
:1045D8007FF479AB9548FDF767FEDFED977A002801
:1045E80000F0808738EE678A944A9549FDEEC87ACC
:1045F800CDED047ABDF910301B0382FB0302DB17F3
:10460800C3EBA212C9F57A731BB203FB02F343F39F
:104618000F334B4407EE903AF8EEE77A0123C7EDE3
:10462800037A0B70FFF74FBB864C94F896305BB15A
:10463800079B1B78D80707D5049BB3F90620059B71
:104648005B8B9A4200F39A8411217848FDF72CFE7F
:10465800002800F0B68194F89A302BB994F8943079
:1046680013B93223A4F89830012384F89A30FFF75D
:1046780011B9DDF81090744A06927049126842F236
:10468800010AA1FB091B12EA0A0A4FEA9B1B00F068
:1046980095816E4D6E486F4C6F492E780078267064
:1046A80008701EB16C490E7886F00106654C0F2122
:1046B80084F82410002B00F0DF82059D674BB5F8C5
:1046C80026C0B5F824E0059D109318462D8B007878
:1046D800634B129594F825500995624D0495A3FBF8
:1046E80000535B0803EB4303C31ADBB20F90CDF80A
:1046F80034C002F480520C9304F128000BF5967331
:10470800CDF8449097F80080DDF82490DFF864C174
:104718000994544C0E91139200210A930896CDF8EF
:104728001CE0089B002B00F0F781099B079D33F9DB
:1047380011201FFA82FEAE454FEA410303D30D9DB7
:10474800AE4540F269825CF82120934580F0EE8105
:10475800E25EBAF1000F40F00C8201314145E252AD
:1047680000F10600DDDB0E99099C3F4B84F824100C
:104778004A460F2984F825200CBF01220022DDF8C3
:1047880044901A7000F07F82384B3149324ADFF882
:10479800E8B008931C46042001230B7013700DF039
:1047A80003FFDBF80030A1686268E3605B1A93429C
:1047B80084BF002384F82130069B3C781E68002CB7
:1047C80000F07D86059A2A4DB2F824E0178B25491A
:1047D80016F48056284640F08F8232460EE0437821
:1047E80003EB830303EB830303F2EE239BB2013253
:1047F800944221F8023B00F102000ED015F8123065
:10480800002B00F00D82022BE9D001320B8821F831
:10481800023B944200F10200F0D1109A1378013360
:104828001370FEF7CEBE414664E400BF585700201F
:10483800984700200031030800007A44D34D6210E5
:10484800B42600208C230020905B002050660020B6
:10485800541F00206D350020551F0020194D0020E1
:10486800ABAAAAAA78620020A42C00209C350020BC
:10487800884E00201C4D0020406C00206F12833FA2
:10488800059A0499537DD27D013B31F913301AB151
:10489800C3F53B6308331BB2A3F57A7307EE903A6E
:1048A8001FED0A7AC24AF8EEE77A40F2FF3167EE66
:1048B800877AFCEEE77ACDED077ABDF81C308B429B
:1048C80028BF0B461380FEF78ABEBA4CD4F888304E
:1048D800A9EB0303002BFEF682AEB74AB74B527C16
:1048E800059933F812308A7DDFEDB56A9FEDB56A18
:1048F800C97D9BB207EE102A07EE903AB8EEC77A48
:10490800F8EEE77A27EE267A67EE867A0B9AC4F8ED
:104918008820C7EE876A40F2FF32FCEEE67ACDEDDA
:10492800077ABDF81C30934228BF134609B1D31A41
:104938009BB2A548A54D0178A54C35F811602268B1
:1049480025F81130921B13440131994D236001F071
:104958000F021B0902702B80FEF741BE02F056FEC3
:104968009C4B9D4A1B68C31A9342C2BF904B0022BE
:104978001A80FEF734BE02219848FDF795FC0028FE
:104988003FF426A82F8018F0020F7FF433A848F0D0
:10499800020343452B803FF42DA8914B022214219A
:1049A8001A700E20FF2259709A7028F007FAB5F88D
:1049B8000080FFF71FB80DF0C7FDAFE489490E78F6
:1049C8006FE694F89430002B3EF464AF079B1B7895
:1049D80013F0010302BF012284F8943084F8952073
:1049E800FEF758BF734C012184F88C10FEF783BE84
:1049F800012900F0B08499F8CC20012303FA0BF3C5
:104A08000BF1010B1343BBF1040F89F8CC300AF109
:104A18000C0A7FF44AADFEF7ABBF511D787925F03B
:104A280075F800283FF4FEAAB9F1010F40F0268678
:104A380007F10D01B87A25F069F8002840F01A86C8
:104A48006949F87B25F062F800283FF4FDAAB9F11E
:104A5800030F40F001866549387D25F057F8002896
:104A680040F0F6856249787E25F050F800283FF43A
:104A7800FDAAB9F1050F40F0E7855E49B87F25F03A
:104A880045F8002840F0DC855B4997F8230025F0BD
:104A98003DF800283FF4FDAAB9F1070F40F0E4857E
:104AA800564997F8280025F031F8002840F0D885B5
:104AB800534997F82D0025F029F800283FF44EA80F
:104AC800B9F1090F3FF44AA8FFF7F7BA5D2B00F0D8
:104AD800CC845B2B00F065825E2B00F07F85562B23
:104AE80000F08085972B00F0A285A72B00F04A855F
:104AF800444D2A88960740F01685A3F1B702072A85
:104B080000F28182DFE812F073027F027F027F02E7
:104B180067027F025B025B02079B002B7AD05CF87E
:104B2800212093454FEA4103FFF412AE364A364D31
:104B3800D25C05EB030E002A00F0BE80022A79D170
:104B48009EF8012002EB820202EB820202F2EE22C0
:104B580092B20329DFBF012505FA01FE0E9D25EA61
:104B68000E05CEBF12B212B20E95BAF1000F3FF485
:104B7800F4AD0C9D20F81520B9F1000F03D10F9D5D
:104B8800022D7FF6EAADB0F802900288B0F804E092
:104B98004A4496441D4A0FFA8EFE82FB0E521C4D63
:104BA800A2EBEE7225F803E012B24FF00109D4E54A
:104BB8006C6200208C230020486C0020686C002068
:104BC8000000C84200008044E32B0020E82B0020AE
:104BD800E42B00200025002060E316005857002031
:104BE800D44800206D3500209D480020A2480020B0
:104BF800A7480020AC480020B1480020B648002053
:104C0800BB4800208C550020884E0020565555552D
:104C1800FC2300201A464B000A9D4CF8215098E5C9
:104C2800D3B2022B04D9032B7FF4EFAD7346DEE534
:104C38003B46DCE5E25A8CE7B74A1278002A7FF453
:104C4800FBAAB8F1000F3FF4F7AA012C40F0078146
:104C58009BF82030FFF792BA3146B048FDF724FBA5
:104C6800002800F09A8084F893600FF0B5FEFEF7F4
:104C78009ABD5B78FFF748BAA94BAA4A109201225D
:104C88001A70A94B04931B21A448FDF70DFB0028BB
:104C98007FF47AADA54BDFF8BCB208931946DBF870
:104CA8000030CA688B609B1AC82B00F20C84069BE4
:104CB8001E6806F48056B0E5CAB2022A40F248835C
:104CC800032AB7D1129A139D079E002D08BF3246BA
:104CD8003FE728F001039BB243452B803FF453AED6
:104CE8000E2087F8009087F801B087F802A028F016
:104CF80065F8B5F8008046E600220FE0437803EB3C
:104D0800830303EB830303F2EE239BB20132A24237
:104D180021F8023B00F102003FF47FAD15F8123094
:104D28001BB1022BEAD00B88F0E7D3B2032BFAD8D9
:104D38003B46EBE7B2F5FA7FFEF6A4AD94F8923065
:104D4800002B7EF49FAD079B1B7801210B4084F854
:104D5800921000F03D830FF051FB754B754D099390
:104D6800FEF793BD0025FFF700BAB2F5FA7FFEF60D
:104D780089AD94F89230002B7EF484AD079A1278AE
:104D8800012184F89210D40700F173830FF024FEF8
:104D9800674B684D0993FEF778BD079B664A1B78F9
:104DA8001060DE077EF503AD644B1B78002B3EF4E4
:104DB80069AD089BDB78002B7EF464AD94F89330E2
:104DC8000133DBB2032B84F893307EF65BAD5C4B8A
:104DD8005B7813B9002D7EF455AD0FF00FFBFEF78D
:104DE800E2BC089BDB78002B7FF4E8ABDFED557A5B
:104DF800554938EE678AC9F5FA63FDEEC87A1BB2E1
:104E0800CDED047ABDF91020120381FB0201D217FF
:104E1800C2EBA11203FB02F343F30F334B4407EE3B
:104E2800903AB8EEE78A87ED038AFFF7C7BB474A8F
:104E380045491068B4F99020C66981FB06018911BB
:104E4800F617701A00F5FF407F3082423EF79EAC9D
:104E5800891B0A4412B2A4F89020FEF797BC099D5A
:104E6800002D3EF4C7ABFFF75FBA394A059BD588DA
:104E7800049A1B8BB2F906105A1B91427BDD2B4416
:104E88009942B4BF00250125FEF7C4BBC8398A4240
:104E980062DA99F8CC109A7841FA0BF3DB073FF500
:104EA80038AB524201200C9228F06EF87B1E0C9A07
:104EB800162B00F23E81DFE813F0E901FD01BC0189
:104EC80022021102360292017D01680153013F015D
:104ED8003C0122022E01360292017D011A010601CF
:104EE800F200A701DC00C800AB460899DBF80020F7
:104EF800CB69099D13448B61002D3EF47BABFFF712
:104F080013BA24F0C1FD032140F6B8328BF8201003
:104F1800CBF81C20FFF797B97826002058570020B7
:104F2800A42C0020194D0020786200209C35002018
:104F3800945500208C550020502B00206D35002002
:104F48009C57002000007A44D34D62106064002012
:104F5800CC4B0020406C002099F8CC30012202FA9A
:104F68000BF223EA020308F5FA7289F8CC30CAF882
:104F78000820FFF7CEBA0125FEF74CBB0021B9483F
:104F8800FDF792F900287FF45FAB322384F896008E
:104F9800A4F89830FFF758BB002A0CBF0120022064
:104FA80081E7B14B01220220B049B14C0B60B14BF3
:104FB8002270B14D099327F0E7FFFEF766BCAD4AB2
:104FC800AB4B09921146AD4A0A6002225A7024F08E
:104FD80037FEFEF75ABCA74AA54B09921146A84AC4
:104FE8000A6000225A7024F02BFEFEF74EBCA14A3C
:104FF8009F4B09921146A34A0A6001225A7024F075
:105008001FFEFEF742BC9E2B00F069839D2B00F02B
:105018005F83AE2B00F05583AD2B00F04B83EF2B55
:1050280000F04583FD2B00F03F83FB2B00F02C8321
:10503800FE2B00F0C983F72B00F0C3837B2B00F015
:1050480070838C4B0993FEF720BCD9F8D0008E4BA7
:1050580090F836109B7811446429A8BF642121EA8E
:10506800E17180F83610002B40F083831BF066FE58
:10507800C1E4D9F8D000844B90F837109B781144DC
:10508800FE29A8BFFE2121EAE17180F83710002B24
:10509800ECD0162024F0BAFDD9F8D000E6E7D9F80C
:1050A800D000794B81781144C829A8BFC82121EACA
:1050B800E17181709B78002BD8D0142024F0A6FDD4
:1050C800D9F8D000D2E7D9F8D0006F4B4178114415
:1050D800C829A8BFC82121EAE17141709B78002B3B
:1050E800C4D0132024F092FDD9F8D000BEE7D9F837
:1050F800D000654B01781144C829A8BFC82121EA0E
:10510800E17101709B78002BB0D0122024F07EFD55
:10511800D9F8D000AAE75C4B0B989B7841791144E9
:105128006429A8BF642121EAE1714171002B40F094
:105138000F83D9F8D00099E7D9F8D000524B017AFB
:105148009B781144C829A8BFC82121EAE1710172DE
:10515800002B8BD00B2024F059FDD9F8D00085E71F
:10516800D9F8D000484BC1799B781144C829A8BF09
:10517800C82121EAE171C171002B3FF477AF0A2001
:1051880024F044FDD9F8D00070E7D9F8D0003E4BA0
:1051980081799B781144C829A8BFC82121EAE17107
:1051A8008171002B3FF462AF092024F02FFDD9F85C
:1051B800D0005BE7D9F8D000334B417993F802E08F
:1051C8001144C829A8BFC82121EAE1714171BEF183
:1051D800000F40F0DC82112F7FF464AF46E7D9F866
:1051E800D000294B017993F802E01144C829A8BFDF
:1051F800C82121EAE1710171BEF1000F40F0BD82C2
:10520800102F7FF463AF31E70B981F4B417811449F
:10521800B1F5967FA8BF4FF4967121EAE17141700C
:105228009B78002B85D0152024F0F0FCD9F8D0000D
:105238001CE70B99144B0F790C931744642FA8BFE4
:10524800642727EAE7770F7124F0FAFC0C9B9B7818
:10525800002B3FF46EAF0320394624F0D7FCD9F871
:10526800D00003E75857002018310020905500203F
:10527800DC510020945500208C550020EE31002090
:10528800D6310020E2310020666200200B98C24B24
:1052980001781144FA29A8BFFA2121EAE1710170C5
:1052A8009B78002B3FF445AF012024F0AFFCD9F8E0
:1052B800D000DBE60B98B84B817811446429A8BF6D
:1052C800642121EAE17181709B78002B3FF431AFB2
:1052D800022024F09BFCD9F8D000C7E60B98AE4B0F
:1052E800C1799B78114481F30801C171002B3FF407
:1052F80020AF052024F08AFCD9F8D000B6E60B9838
:10530800A54B817993F802E011446429A8BF642170
:1053180021EAE1718171BEF1000F40F042820D2F48
:105328007FF4FAAE05E7D9F8D0009B4BC17893F823
:1053380002E01144C829A8BFC82121EAE171C1705F
:10534800BEF1000F40F043820F2F7FF4D3AE8DE6FD
:10535800129AFFF7FEBB04999B7831F91220B2F537
:10536800617F4FF4966191FBF3F3C0F2898040F6B8
:1053780033019142A8BF11460C2FA1F5617191FB31
:10538800F3F100F07581182F7FF435ABC9B2C82945
:105398000B46A8BFC823D9F8D020D77DD8B2B842C9
:1053A8003FF429ABDF1B7C4BD07548BF0737FF1094
:1053B8009B780137FFB23BB9002F3FF41CAB38464E
:1053C80027F0E2FDFFF717BB182024F01FFCF3E7D6
:1053D8007249096811F4003140F022810846704B87
:1053E8001D5C0F2D00F10C0027D001311829F7D1D1
:1053F8000023FA3A84F892306A4BA4F890206A4D58
:105408000993FEF742BADFF8D0E1DEF800704A00EF
:105418003FB1501803EB80007F784078B842BEF463
:10542800A2AA0A446148624903EB82030022CEF82B
:10543800003002800A60FEF796BADFF89CE1DEF8D9
:105448000060480036B1451803EB850576786D781D
:10545800B542CDD20844554D554903EB8003002091
:10546800CEF8003028800860C2E7524B00220120A5
:105478009AE5514A4C4D13604A4B0993FEF705BA19
:105488000C2F40F0C780002739464C4B0D915B78B4
:10549800BB423FF4B0AA404B0C93384610F056F983
:1054A8000C9B0D999B781BB1C9B20C2024F0AEFB64
:1054B8000137FFB280E7424A0592FFF7DCB806F4ED
:1054C8008056FFF7AAB93F4A069B1E68136823F067
:1054D80004031360089A012306F4805682F82130E9
:1054E800FFF79BB938EE678A374B38491870FDEEDD
:1054F800C87AC9F5FA63CDED047ABDF91020120314
:1055080081FB0201D217C2EBA1121BB203FB02F30B
:1055180043F30F334B4407EE903AF8EEE77AC7EDC2
:10552800037AFEF7D0BB0022BB2B169200F0AA80AC
:10553800B72B00F0DB80BE2B00F0DB80BD2B7FF4A7
:1055480062AD13464FF6FE72214916488E890990BE
:10555800C889324403448A81CB8126F09FFEFCF738
:1055680013F826F083FE03F0BDFA012027F00CFDA6
:10557800B4F890300022FA3BA4F8903084F89220D6
:10558800FEF783B9134A084D137843F004031370E8
:10559800044B0993FEF779B966620020984700200A
:1055A80000310308945500208C5500202027002046
:1055B80024270020CA300020502B0020DC51002076
:1055C8004850002088550020B4260020D34D621092
:1055D8007C5700206462002034260020814B022280
:1055E8000320E1E426F05AFEFBF7CEFF26F03EFE4C
:1055F80003F078FA012027F0C7FC94F88E30FFF703
:1056080071BA794B1B78032B7EF4BFAF27F0BAFB36
:10561800FEF7A9B9182F7FF4EEA900210B46BAE6C8
:1056280071490978032967D018461946D7E66F4BA0
:105638006F4D4FF4C8721A806E4B0993FEF725B967
:1056480006231A46FEF73BBD05231A46FEF737BD6B
:1056580004231A46FEF733BD03231A46FEF72FBD6F
:1056680008231A46FEF72BBD07231A46FEF727BD67
:10567800CFB20AE702231A46FEF721BD01231A46D4
:10568800FEF71DBD02235FE7002102200FF082FF15
:10569800B4F89030574A0992963B0022A4F890300B
:1056A80084F89220FEF7F1B800210120EEE70021EE
:1056B8000846EBE7FF21002016F085F994F88E30B4
:1056C800ADE40121002016F07EF994F88E30A3E4B1
:1056D8000021FF2016F077F994F88E3099E4002124
:1056E800012016F070F994F88E308FE44FF6FE73AF
:1056F8002AE71346022227E727F044FBB4F9902053
:1057080076E6002D3DF4CBAF3B4C94F88D30002B62
:105718003DF4F6AF27F036FB002384F88D30FDF713
:10572800EFBF4FF4FA6102200FF034FF89E4314BE8
:1057380084F8942084F895002D4D0993FEF775BFE1
:105748000B2027F03BFB2B4B294D0993FEF79DB807
:105758000E2024F05BFAD9F8D00087E4002BD3D0D0
:105768002649274A09684FF47A7000FB031313602F
:10577800CAE7172024F04AFADBE410200D930C92B4
:1057880024F044FAD9F8D0000D9B0C9A38E5112082
:105798000D930C9224F03AFAD9F8D0000D9B0C9A8C
:1057A80019E50D200D930C9224F030FA0D9B0C9AFC
:1057B800B5E5114C0EF022FE002384F88D30FDF77C
:1057C8009FBF0021042061E7002103205EE70F202E
:1057D8000D930C9224F01AFAD9F8D0000D9B0C9A6C
:1057E800B2E500BF66310020A4620020B26100204B
:1057F8008C550020945500208C230020406C0020FC
:105808004C2B00202DE9F047C74C63682046984789
:10581800002800F0C380C54B1B780122042B84F8B4
:105828003C2000F0BD80B4F91610B4F91820B4F982
:105838001A3021636263A363BD4B1B88002B69D0B8
:10584800BC4DD4ED0C7AD5ED004A95ED050A95EDE1
:10585800015A95ED067AD5ED035A95ED026AF8EEF0
:10586800E76AD5ED047AA4EEA60AA5EE267A67EED5
:10587800C07AA5EEC07AE6EE267A85ED057AC5ED02
:10588800067A2AF0C9FCD4ED0D6AD5ED094A95EDE2
:105898000E0A95ED0A5A95ED0F7AD5ED0D7AD5EDEC
:1058A8000C5A95ED0B6A2063F8EEE66AA4EEA60A98
:1058B800A5EE267A67EEC07AA5EEC07AE6EE267ADD
:1058C80085ED0E7AC5ED0F7A2AF0A6FCD4ED0E6AA6
:1058D800D5ED124A95ED170A95ED135A95ED187AFC
:1058E800D5ED167AD5ED155A95ED146A6063F8EE84
:1058F800E66AA6EEA40AA6EE857A67EEC07AA0EE5E
:10590800657AE6EE867A85ED177AC5ED187A2AF07B
:1059180083FCA063884FA17F884811F003F83B8877
:10592800002B40F08480864ED6F8E050854B1B68EB
:105938005B0743D4B5F90070216B636BA06B824A97
:10594800824E92ED026AD2ED006AD2ED015AC91B6D
:105958002163B5F90270DB1B6363B5F90470356820
:10596800C01B07EE900AB8EEE75A07EE901AB8EE99
:10597800E77A07EE903AF8EEE77A36EE056A36EE01
:10598800877A77EEA57A0135A06382ED026A82ED07
:10599800007AC2ED017A3560BDE8F087BDE8F0878E
:1059A8006B4BB4F91600B4F91810B4F91A20188022
:1059B8002063598061639A80A2633DE7B6F8982016
:1059C800322A00F08880002A66D196F89530002B9C
:1059D800B0D06048D6F8FC205F4980FB0273D2172C
:1059E800C2EB23122A80D6F8002180FB0273D2175B
:1059F800C2EB23126A80D6F80431A78A80FB03021F
:105A0800DB17C3EB2213DB1BAB800023CB6086F8CC
:105A1800953026F043FCFBF7B7FD26F027FC03F092
:105A280061F8012027F0B0FAD6F8E05082E7444E3A
:105A3800226BD6F8E050B3F5C87F4FF0000323631C
:105A48002B80398818BFD6F8E400B7F8008008BF63
:105A58000020B1F5C87F18BFD6F8E830616B024462
:105A68000B440020B8F5C87F6063C6F8E420C6F888
:105A7800E830688052D0D4F838E0D6F8EC10A0634B
:105A88007144B8F1010FA880C6F8EC1068D008F18D
:105A9800FF38A7F8008049E7D6F8FC00236B0021FF
:105AA8000344C6F8FC3021632980D6F80001636BF3
:105AB80061630344C6F800316980A36BD6F804011A
:105AC800A1630344012AC6F80431A98075D0013ABC
